:100000000C9463000C948B000C948B000C94B30440
:100010000C94B3040C94B3040C948B000C948B00DC
:100020000C948B000C948B000C948B000C948B0024
:100030000C948B000C948B000C948B000C948B0014
:100040000C9469040C948B000C9437040C941104E8
:100050000C948B000C948B000C948B000C948B00F4
:100060000C948B000C948B000000000024002700EF
:100070002A0000000008000201000003040700003D
:1000800000000000000000000000250028002B00F8
:1000900000000000230026002900040404040404D6
:1000A0000404020202020202030303030303010227
:1000B00004081020408001020408102001020408F6
:1000C00010202D05900711241FBECFEFD8E0DEBF12
:1000D000CDBF11E0A0E0B1E0E4EBFFE002C005908D
:1000E0000D92AE38B107D9F722E0AEE8B1E001C019
:1000F0001D92AF3CB207E1F710E0C2E6D0E004C0C9
:100100002197FE010E94C207C136D107C9F70E949C
:10011000D8050C94CD070C94000081E080938E01EB
:10012000089510928E01089581E080938F010895C3
:1001300010928F01089581E08093900108951092AC
:100140009001089581E080939101089510929101AA
:100150000895CF92DF92EF92FF920F931F93CF9368
:10016000DF936C017A018B01C0E0D0E0CE15DF0592
:1001700089F0D8016D918D01D601ED91FC9101902E
:10018000F081E02DC6010995892B11F47E0102C092
:100190002196ECCFC701DF91CF911F910F91FF9076
:1001A000EF90DF90CF900895FC01918D828D98178C
:1001B00061F0828DDF01A80FB11D5D968C91928D4B
:1001C0009F5F9F73928F90E008958FEF9FEF089548
:1001D000FC01918D828D981731F0828DE80FF11D11
:1001E000858D90E008958FEF9FEF0895FC01918D2C
:1001F000228D892F90E0805C9F4F821B91098F7325
:100200009927089583E192E00E94F60021E0892B6E
:1002100009F420E0822F0895FC01848DDF01A80FEE
:10022000B11DA35ABF4F2C91848D90E001968F731E
:100230009927848FA689B7892C93A089B1898C913D
:1002400080648C93938D848D981306C00288F38903
:10025000E02D80818F7D80830895EF92FF920F9330
:100260001F93CF93DF93EC0181E0888F9B8D8C8D62
:10027000981305C0E889F989808185FD24C0F62E90
:100280000B8D10E00F5F1F4F0F731127E02E8C8D29
:10029000E8120CC00FB607FCFACFE889F989808113
:1002A00085FFF5CFCE010E940C01F1CF8B8DFE01B1
:1002B000E80FF11DE35AFF4FF0820B8FEA89FB89AB
:1002C0008081806207C0EE89FF896083E889F989AF
:1002D00080818064808381E090E0DF91CF911F91E5
:1002E0000F91FF90EF900895CF93DF93EC01888DED
:1002F0008823C9F0EA89FB89808185FD05C0A8892A
:10030000B9898C9186FD0FC00FB607FCF5CF8081AF
:1003100085FFF2CFA889B9898C9185FFEDCFCE01F9
:100320000E940C01E7CFDF91CF91089580E090E02B
:10033000892B29F00E94020181110C94000008957C
:1003400090E0FC01EE58FF4F3491FC01E255FF4F65
:100350002491FC01E656FF4FE491EE2309F43BC0E3
:10036000332339F1333091F038F43130A9F03230A1
:1003700001F584B58F7D12C0373091F03830A1F08F
:100380003430B9F4809180008F7D03C0809180006B
:100390008F77809380000DC084B58F7784BD09C0AE
:1003A0008091B0008F7703C08091B0008F7D8093E3
:1003B000B000F0E0EE0FFF1FEA57FF4FA591B49198
:1003C0008FB7F894EC91611103C020952E2301C0E2
:1003D0002E2B2C938FBF0895CF93DF9390E0FC01D9
:1003E000E255FF4F2491FC01E656FF4F849188238C
:1003F00061F190E0880F991FFC01E859FF4FC5910A
:10040000D491FC01EA57FF4FA591B491611109C045
:100410009FB7F8948881209582238883EC912E23BE
:100420000BC0623061F49FB7F8943881822F8095B9
:1004300083238883EC912E2B2C939FBF06C08FB70C
:10044000F894E8812E2B28838FBFDF91CF910895F8
:100450003FB7F8948091D7019091D801A091D9012C
:10046000B091DA0126B5A89B05C02F3F19F001967F
:10047000A11DB11D3FBFBA2FA92F982F8827820F2A
:10048000911DA11DB11DBC01CD0143E0660F771F79
:10049000881F991F4A95D1F708958F929F92AF9226
:1004A000BF92CF92DF92EF92FF926B017C010E948C
:1004B00028024B015C01C114D104E104F104F1F004
:1004C0000E942802DC01CB0188199909AA09BB09FD
:1004D000883E9340A105B10570F321E0C21AD1080E
:1004E000E108F10888EE880E83E0981EA11CB11C7B
:1004F000C114D104E104F10419F7DDCFFF90EF90AE
:10050000DF90CF90BF90AF909F908F90089564E15F
:1005100070E080E090E00E944D0261E08BE00C947E
:10052000A00160E08BE00E94A00164E170E080E047
:1005300090E00E944D0260E088E00C94A0012091C0
:10054000DD013091DE012817390771F49091DB014C
:100550008091DC01981741F0E091DB01F0E0EE566C
:10056000FE4F808190E008958FEF9FEF08950895EA
:100570001F93CF93DF93DC015C962D913C915D97A7
:100580002115310539F481E090E013969C938E9308
:1005900012973DC05196ED91FC91529750969C91C7
:1005A0005097892F80951FB75E964C915E9741FBBF
:1005B000772770F941FD6095F8944081772311F019
:1005C000492B01C048234083E9012197F1F748E016
:1005D000508160FF02C0592B01C058235083E901AC
:1005E0002197F1F76695415099F7772321F0908193
:1005F0008923808303C08081982B90831FBF5C96E2
:100600008D919C915D970197F1F721E030E0C90150
:10061000DF91CF911F9108952091DD013091DE018E
:100620002817390771F48091DC012091DB0190E0FB
:10063000805C9F4F821B910960E470E00E949A07E2
:10064000089580E090E008952091DD013091DE0171
:1006500028173907B9F49091DB018091DC019817D4
:1006600089F0E091DB01F0E0EE56FE4F80812091B1
:10067000DB0130E02F5F3F4F2F7333272093DB01E7
:1006800090E008958FEF9FEF0895E091DD01F091E4
:10069000DE01E817F90769F4A389B4899C9185897B
:1006A000809589238C931092DE011092DD0181E008
:1006B000089580E0089580EB92E00E940C03892B5E
:1006C00029F080EB92E00E942403F5CF0895BF92B9
:1006D000CF92DF92EF92FF920F931F93CF93DF930E
:1006E000FC01C0901102D090120220E030E090E0B6
:1006F0008F010F5F1F4F2C153D0524F5D901A15225
:10070000BE4FAC918081A8131AC0D901A60FB71FA4
:10071000CA16DB06A4F0D801CD018E1B9F0B8617ED
:10072000970764F42F5F3F4FBD90C90181529E4FE0
:10073000EC0198819B1581F390E001C091E02F5F5F
:100740003F4FD9CF992389F0EA0148E050E064E8AF
:1007500071E083E192E00E94A900FE0109950E94E8
:100760005B031092120210921102DF91CF911F9140
:100770000F91FF90EF90DF90CF90BF9008950F936F
:100780001F93CF93DF9380919101811107C08091D6
:100790009001811106C0C1E0D0E005C0C5E0D0E005
:1007A00002C0C3E0D0E000E010E064E170E080E06F
:1007B00090E00E944D0261E088E00E94A0018091DB
:1007C0008F01882329F068E873E180E090E008C099
:1007D00080918E01882331F068EB7BE080E090E02F
:1007E0000E944D020F5F1F4F0C171D07F1F66EE1BF
:1007F00070E080E090E00E944D0260E088E00E949E
:10080000A00162E370E080E090E00E944D0260E0B1
:100810008BE0DF91CF911F910F910C94A0010E946A
:10082000C8071F920F920FB60F9211242F933F9378
:100830004F935F936F937F938F939F93AF93BF93E8
:10084000EF93FF9383E192E00E940C01FF91EF91FF
:10085000BF91AF919F918F917F916F915F914F91D8
:100860003F912F910F900FBE0F901F9018951F92E0
:100870000F920FB60F9211242F938F939F93EF93A4
:10088000FF93E0912302F09124028081E0912902FC
:10089000F0912A0282FD12C0908180912C028F5F1C
:1008A0008F7320912D02821751F0E0912C02F0E01D
:1008B000ED5EFD4F958F80932C0201C08081FF91EA
:1008C000EF919F918F912F910F900FBE0F901F90DE
:1008D00018951F920F920FB60F9211242F933F93EA
:1008E0008F939F93AF93BF938091D3019091D40145
:1008F000A091D501B091D6013091D20126E0230F0D
:100900002D3720F40296A11DB11D05C029E8230F43
:100910000396A11DB11D2093D2018093D301909322
:10092000D401A093D501B093D6018091D7019091C5
:10093000D801A091D901B091DA010196A11DB11D94
:100940008093D7019093D801A093D901B093DA0195
:10095000BF91AF919F918F913F912F910F900FBEBB
:100960000F901F9018951F920F920FB60F9211249F
:100970002F933F934F935F936F937F938F939F93A7
:10098000AF93BF93EF93FF93E091DD01F091DE0110
:10099000309709F451C0968DA685B785858591FF5E
:1009A00004C09C91892329F447C09C91892309F0B4
:1009B00043C0A389B4899C918589809589238C93B0
:1009C000868997890197F1F7608D718DA685B78526
:1009D000558538E020E0CB010197F1F7822F90E0B8
:1009E00095958795282F4C91452309F02068315023
:1009F00091F7868D81FD20958091DC0190E0019634
:100A00008F7399273091DB01381749F0A091DC01F1
:100A1000B0E0AE56BE4F2C938093DC0103C0868DB0
:100A20008160868F828D938D0197F1F7A389B489B8
:100A30009C918589892B8C93FF91EF91BF91AF9108
:100A40009F918F917F916F915F914F913F912F91E6
:100A50000F900FBE0F901F901895109216021092D3
:100A6000150288EE93E0A0E0B0E080931702909327
:100A70001802A0931902B0931A0228E631E03093CD
:100A800014022093130225EC30E0309320022093CF
:100A90001F0224EC30E0309322022093210220EC4C
:100AA00030E0309324022093230221EC30E0309395
:100AB00026022093250222EC30E030932802209376
:100AC000270226EC30E030932A022093290210926C
:100AD0002C0210922D0210922E0210922F021092D0
:100AE000B3021092B2028093B4029093B502A09325
:100AF000B602B093B70288E791E09093B102809379
:100B0000B0021092C7021092C6021092C90210924F
:100B1000C8021092CB021092CA021092CD0210921B
:100B2000CC026091CE026E7F6D7F6093CE0266959F
:100B3000617081E0682789E00E94A00161E089E09E
:100B40000E94EC01E7EBF0E0E491E093C002E3EAFD
:100B5000F0E0E491F0E0EE0FFF1FEA57FF4F8591C0
:100B600094919093C2028093C10260E08AE00E9457
:100B7000EC018091CE0281FD04C061E08AE00E9418
:100B8000A0018AE08093BC02E8EBF0E0E491E093FE
:100B9000BD02E4EAF0E0E491F0E0EE0FFF1FE05761
:100BA000FF4F859194919093BF028093BE02089568
:100BB000789484B5826084BD84B5816084BD85B538
:100BC000826085BD85B5816085BD80916E00816044
:100BD00080936E00109281008091810082608093EA
:100BE00081008091810081608093810080918000EC
:100BF0008160809380008091B10084608093B10017
:100C00008091B00081608093B00080917A00846010
:100C100080937A0080917A00826080937A0080913C
:100C20007A008E7F80937A0080917A00806880932A
:100C30007A001092C100E0912302F091240282E038
:100C40008083E0911F02F09120021082E091210246
:100C5000F091220287E6808310922B02E091270216
:100C6000F091280286E08083E0912502F09126022F
:100C7000808180618083E0912502F091260280814D
:100C800088608083E0912502F0912602808180684F
:100C90008083E0912502F091260280818F7D808300
:100CA00060E08AE00E94EC0161E089E00E94EC01D2
:100CB0001092CB021092CA021092C9021092C8027E
:100CC0001092C7021092C6028DEC90E09093CD0274
:100CD0008093CC029091BC02963108F057C025E574
:100CE00030E03093C7022093C6022BEC30E0309303
:100CF000C9022093C80220E930E03093CB02209350
:100D0000CA0220916800983050F031E09E3008F41B
:100D100030E081E001C0880F3A95EAF701C084E035
:100D2000822B80936800983038F09E3040F09631E6
:100D300048F020E030E008C02DE630E005C02BE6AA
:100D400030E002C02CE630E03093C4022093C302AE
:100D5000983030F481E001C0880F9A95EAF70EC010
:100D6000292F30E09E3018F42850310902C02E504F
:100D7000310981E001C0880F2A95EAF78093C50206
:100D80008091CC029091CD020197F1F78091CA0237
:100D90009091CB02892B21F18091DD019091DE01B0
:100DA00022E0803B9207E1F0009711F00E9445039A
:100DB0008091CE028E7F8093CE021092DC01109241
:100DC000DB0180EB92E09093DE018093DD01E09106
:100DD000C302F091C40290818091C502892B808367
:100DE00061E08DE00E94EC0161E08BE00E94EC018B
:100DF00061E088E00E94EC0160E08BE00E94A001CD
:100E000060E088E00E94A00161E08DE00E94A00106
:100E1000C0E080EB92E00E940C03892B19F1C09195
:100E20001102D0911202C233D1053CF0109212028D
:100E3000109211020E945B0370C0CE010196909344
:100E400012028093110280EB92E00E942403C152AF
:100E5000DE4F888362E070E080E090E00E944D0207
:100E6000C1E0D7CFCC2309F458C047E852E065E091
:100E700070E08FE591E00E9467034FEB53E065E07F
:100E800070E08AE591E00E94670341E952E066E084
:100E900070E084E591E00E9467034DE850E06AE06D
:100EA00070E08AE491E00E94670341E950E06BE062
:100EB00070E08FE391E00E94670344E950E06AE04C
:100EC00070E085E391E00E94670348E950E06BE041
:100ED00070E08AE291E00E9467034BE950E06AE02B
:100EE00070E080E291E00E9467034FE950E06BE020
:100EF00070E085E191E00E94670342EA50E06AE019
:100F000070E08BE091E00E94670346EA50E06BE0FE
:100F100070E080E091E00E9467030E94960178CF24
:100F200088E791E09093B1028093B00280EB92E069
:100F30000C94450397FB072E16F4009407D077FD19
:100F400009D00E94AE0707FC05D03EF4909581952C
:100F50009F4F0895709561957F4F0895AA1BBB1B05
:100F600051E107C0AA1FBB1FA617B70710F0A61BA9
:100F7000B70B881F991F5A95A9F780959095BC01CA
:100F8000CD010895EE0FFF1F0590F491E02D099417
:100F900081E090E0F8940C94CD0710E0C2E6D0E038
:100FA00004C0FE010E94C2072196C336D107C9F7CB
:040FB000F894FFCFE3
:100FB40073775F3573686F5F6F666673775F3573DA
:100FC400686F5F6F6E73775F3373686F5F6F6666AA
:100FD40073775F3373686F5F6F6E73775F357365B5
:100FE400635F6F666673775F357365635F6F6E7398
:100FF400775F337365635F6F666673775F337365BB
:10100400635F6F6E63616E63656C73686F6F746644
:101014006F637573000000002D01A900F600D40071
:10102400E800740100000000B802A9000C032403C6
:0E1034009F02B702646F5F54455354320000B0
:00000001FF
